:100000000C9481000C94A9000C94A9000C947B061C
:100010000C947B060C947B060C94A9000C94A9000C
:100020000C94A9000C94A9000C94A9000C94A900AC
:100030000C94A9000C94A9000C94A9000C94A9009C
:100040000C94D9050C94A9000C9449060C94230631
:100050000C94A9000C94A9000C94A9000C94A9007C
:100060000C94A9000C94A9004E414E494E49545994
:10007000494E46CDCCCC3D0AD7233C17B7D1387773
:10008000CC2B329595E6241FB14F0A000020410089
:1000900000C84200401C4620BCBE4CCA1B0E5AAED3
:1000A000C59D7400000000240027002A0000000005
:1000B0000800020100000304070000000000000027
:1000C0000000000000230026002900000000002599
:1000D0000028002B000404040404040404020202A7
:1000E0000202020303030303030102040810204079
:1000F0008001020408102001020408102000F30609
:10010000A70911241FBECFEFD8E0DEBFCDBF22E08C
:10011000A4E8B1E001C01D92A33EB207E1F711E0EF
:10012000A0E0B1E0E2E2FFE102C005900D92A43848
:10013000B107D9F710E0C0E8D0E004C02197FE0174
:100140000E948C0DCF37D107C9F70E9437070C9456
:10015000840F0C94000090E0FC01E355FF4F2491C4
:10016000FC01E751FF4F3491FC01EB52FF4FE4914A
:10017000EE23C9F0222339F0233001F1A8F4213015
:1001800019F1223029F1F0E0EE0FFF1FE553FF4F88
:10019000A591B4918FB7F894EC91611126C0309578
:1001A0003E233C938FBF08952730A9F02830C9F033
:1001B000243049F7809180008F7D03C080918000BA
:1001C0008F7780938000DFCF84B58F7784BDDBCFBE
:1001D00084B58F7DFBCF8091B0008F778093B00086
:1001E000D2CF8091B0008F7DF9CF3E2BDACFCF9365
:1001F000DF9390E0FC01E751FF4F24918B529F4F1A
:10020000FC0184918823D1F090E0880F991FFC01B4
:10021000ED55FF4FA591B491FC01E553FF4FC591FA
:10022000D49161110EC09FB7F8948C91E22FE095A4
:100230008E238C932881E223E8839FBFDF91CF91A7
:1002400008958FB7F894EC91E22BEC938FBFF6CF23
:100250000F931F93CF93DF93EC01162F042F1B8274
:100260001A8288EE93E0A0E0B0E08C839D83AE8399
:10027000BF838AE091E0998388831F8A1E8A198E42
:10028000188E1B8E1A8E1D8E1C8E6E8D6E7F6D7F4E
:100290006E8F6695617081E06827842F0E94AB00A5
:1002A00061E0802F0E94F700802F90E0FC01E75171
:1002B000FF4FE491E88BFC01EB52FF4FE491F0E03B
:1002C000EE0FFF1FE553FF4F859194919A8B898B19
:1002D00060E0812F0E94F7008E8D81FD04C061E0F7
:1002E000812F0E94AB001C87812F90E0FC01E75119
:1002F000FF4FE491ED87FC01EB52FF4FE491F0E0FA
:10030000EE0FFF1FEF53FF4F859194919F878E87CC
:10031000DF91CF911F910F9108952FB7F8946091BD
:10032000EC017091ED018091EE019091EF012FBFF2
:100330000895AF92BF92CF92DF92EF92FF920F9308
:100340001F93CF93DF936C017B018B01040F151F6B
:10035000EB015E01AE18BF08C017D10759F06991D3
:10036000D601ED91FC910190F081E02DC601099537
:10037000892B79F7C501DF91CF911F910F91FF90E4
:10038000EF90DF90CF90BF90AF900895FC01538D18
:10039000448D252F30E0842F90E0821B930B54175F
:1003A00010F0CF96089501970895FC01918D828DEC
:1003B000981761F0A28DAE0FBF2FB11D5D968C9185
:1003C000928D9F5F9F73928F90E008958FEF9FEFC4
:1003D0000895FC01918D828D981731F0828DE80F80
:1003E000F11D858D90E008958FEF9FEF0895FC013A
:1003F000918D228D892F90E0805C9F4F821B910907
:100400008F739927089580EF91E00E94F70121E012
:10041000892B09F420E0822F089580E090E0892B59
:1004200029F00E94030281110C9400000895FC0140
:10043000A48DA80FB92FB11DA35ABF4F2C91848D45
:1004400090E001968F739927848FA689B7892C93A2
:10045000A089B1898C91837080648C93938D848DF5
:10046000981306C00288F389E02D80818F7D8083F8
:100470000895EF92FF920F931F93CF93DF93EC01B8
:1004800081E0888F9B8D8C8D98131AC0E889F9893B
:10049000808185FF15C09FB7F894EE89FF8960833E
:1004A000E889F98980818370806480839FBF81E0BF
:1004B00090E0DF91CF911F910F91FF90EF90089501
:1004C000F62E0B8D10E00F5F1F4F0F731127E02EDC
:1004D0008C8D8E110CC00FB607FCFACFE889F98914
:1004E000808185FFF5CFCE010E941702F1CFEB8D01
:1004F000EC0FFD2FF11DE35AFF4FF0829FB7F894E8
:100500000B8FEA89FB8980818062CFCFCF93DF9305
:10051000EC01888D8823B9F0AA89BB89E889F9891B
:100520008C9185FD03C0808186FD0DC00FB607FC50
:10053000F7CF8C9185FFF2CF808185FFEDCFCE0183
:100540000E941702E9CFDF91CF9108952091C60153
:100550003091C7012817390771F49091C501809136
:10056000C401981741F0E091C501F0E0EC57FE4F4F
:10057000808190E008958FEF9FEF08950895EF92A6
:10058000FF920F931F93CF93DF93DC015C96ED9066
:10059000FC905D97E114F10479F481E090E013960A
:1005A0009C938E93129790E080E0DF91CF911F9102
:1005B0000F91FF90EF9008955196ED91FC91529715
:1005C00050968C915097982F90950FB75E962C91DE
:1005D0005E97122F127021FD6095F89420811123EF
:1005E00019F1282B2083E7012197F1F728E0462F06
:1005F00050E0308160FF1AC0382B3083E70121972B
:10060000F1F7BA0175956795215089F7112381F0AB
:100610008081892380830FBF5C968D919C91019787
:10062000F1F781E090E0C1CF2923DCCF3923E5CF7A
:100630009081892BEFCF2091C6013091C7012817F7
:10064000390761F48091C4012091C50190E0805C7C
:100650009F4F821B91098F739927089590E080E046
:1006600008952091C6013091C70128173907B9F4C0
:100670009091C5018091C401981789F0E091C5015E
:10068000F0E0EC57FE4F80812091C50130E02F5FF4
:100690003F4F2F7333272093C50190E008958FEFCC
:1006A0009FEF0895E091C601F091C701E817F9079F
:1006B00069F4A389B4899C918589809589238C9359
:1006C0001092C7011092C60181E0089580E008955C
:1006D000CF93DF93EC018A8D9B8D892B01F1809163
:1006E000C6019091C7018C179D07C9F0009711F0C2
:1006F0000E9452038E8D8E7F8E8F1092C4011092B5
:10070000C501D093C701C093C601EB89FC898081E4
:100710009D89892B808381E0DF91CF91089580E0CE
:10072000FBCFFC01138E128E118E108E178A168A43
:100730008DE991E0958F848F84858631D8F52DEBF6
:1007400030E0378B268B2BE931E0318F208F2CE284
:1007500031E0338F228F90916800883070F121E072
:100760008E3008F420E081E001C0880F2A95EAF776
:10077000892B8093680084852DE630E0883050F026
:100780002BE630E08E3030F02CE630E0863110F091
:1007900030E020E0348B238B282F30E0883078F451
:1007A00091E001C0990F8A95EAF7958B848D958D1C
:1007B0000197F1F7CF010C94680384E0D9CF8E3014
:1007C00040F42850310991E001C0990F2A95EAF7C9
:1007D000ECCF2E503109F7CF90E080E00895FC0176
:1007E00001900020E9F73197AF01481B590BBC017C
:1007F00080EF91E00C9499018F929F92AF92BF92FB
:100800000F931F93CF93DF93CDB7DEB7A1970FB6AA
:10081000F894DEBF0FBECDBF19A2423008F44AE003
:100820008E010F5D1F4F842E912CB12CA12CA501A0
:1008300094010E946A0DE62FB901CA01EA30F4F46E
:10084000E05DD801EE938D01232B242B252B79F726
:1008500090E080E0109719F0CD010E94EF03A1967F
:100860000FB6F894DEBF0FBECDBFDF91CF911F91C1
:100870000F91BF90AF909F908F900895E95CE1CF6A
:10088000CF93DF930E94EF03EC018AE291E00E9494
:10089000EF038C0F9D1FDF91CF91089581E080932E
:1008A000CC010E948D016093C8017093C9018093AF
:1008B000CA019093CB018DE291E00E94400461E077
:1008C00084E00C94AB004F925F926F927F928F9274
:1008D0009F92AF92BF92CF92DF92EF92FF926B0105
:1008E0007C01AC019B010E94650D8823C1F08BE364
:1008F00091E00E94EF037C018AE291E00E94EF0305
:100900008E0D9F1DFF90EF90DF90CF90BF90AF9026
:100910009F908F907F906F905F904F9008954601C9
:100920005701E894B7F82FEF3FEF4FE75FE7C501B6
:10093000B4010E94650D81110DC02FEF3FEF4FE70D
:100940005FE7C501B4010E943E0B18161CF48FE34B
:1009500091E0CFCF2FEF3FEF4FE75FE4C701B60144
:100960000E94600D18161CF483E491E0C2CF2FEFB3
:100970003FEF4FE75FECC701B6010E943E0B87FDDA
:10098000F3CF20E030E0A901C701B6010E943E0B81
:10099000B12CA12C87FF0AC06DE280EF91E00E948C
:1009A00039025C01F7FAF094F7F8F0942AE037ED99
:1009B00043EA5BE3C701B6010E94C50C2B013C0171
:1009C0000E94310D6B017C010E94430B9B01AC0125
:1009D000C301B2010E94C40C2B013C014AE0C701D3
:1009E000B6010E94FC037C01EA0CFB1C6EE280EF66
:1009F00091E00E943902E80EF91E20E030E040E26A
:100A000051E4C301B2010E94A40B2B013C010E94DE
:100A1000310D4B01B12CA12C4AE0C501B4010E945B
:100A2000FC03E80EF91EC501B4010E94430B9B01B3
:100A3000AC01C301B2010E94C40C20E030E040E2EE
:100A400051E40E94A40B0E94310D90E080E04AE046
:100A50000E94FC03E80EF91E4FCFFC0180819181BA
:100A6000009711F00C942E0E08950F931F93CF93BF
:100A7000DF93EC0188819981009759F02A813B81AD
:100A80002617370730F081E0DF91CF911F910F914A
:100A900008958B016F5F7F4F0E94B70E009759F04A
:100AA000998388831B830A832C813D81232B59F7EB
:100AB000FC011082E8CF80E0E7CFCF93DF93EC0119
:100AC000198218821B821A821D821C8270E060E0EB
:100AD0000E9435052881398181110FC0211531050A
:100AE00019F0C9010E942E0E198218821D821C82E3
:100AF0001B821A82DF91CF9108951D821C826CE2C5
:100B000071E0C901DF91CF910C947D0FCF93DF93FA
:100B1000EC0170E060E00E94350528813981811187
:100B20000FC02115310519F0C9010E942E0E19823E
:100B300018821D821C821B821A82DF91CF91089538
:100B40001D821C826CE271E0C901DF91CF910C948F
:100B50007D0FEF92FF920F931F93CF93DF9300D0FF
:100B6000CDB7DEB78C0169831A82FC01E480F58081
:100B7000FFEFEF1AFF0AB7010E943505882381F0C5
:100B8000F8012081318184819581BE016F5F7F4FA3
:100B9000820F931F0E947D0FF801F582E48281E0AD
:100BA0000F900F90DF91CF911F910F91FF90EF90D9
:100BB00008951F920F920FB60F9211242F933F9317
:100BC0008F939F93AF93BF938091EC019091ED0130
:100BD000A091EE01B091EF013091EB0123E0230FE2
:100BE0002D3758F50196A11DB11D2093EB0180937F
:100BF000EC019093ED01A093EE01B093EF01809191
:100C0000E7019091E801A091E901B091EA01019614
:100C1000A11DB11D8093E7019093E801A093E90124
:100C2000B093EA01BF91AF919F918F913F912F9126
:100C30000F900FBE0F901F90189526E8230F029675
:100C4000A11DB11DD2CF1F920F920FB60F9211248A
:100C50002F933F934F935F936F937F938F939F93C4
:100C6000AF93BF93EF93FF9380EF91E00E94170241
:100C7000FF91EF91BF91AF919F918F917F916F9174
:100C80005F914F913F912F910F900FBE0F901F904A
:100C900018951F920F920FB60F9211242F938F93D6
:100CA0009F93EF93FF93E0910002F0910102808106
:100CB000E0910602F091070282FD1BC090818091B5
:100CC00009028F5F8F7320910A02821741F0E09131
:100CD0000902F0E0E051FE4F958F80930902FF91E9
:100CE000EF919F918F912F910F900FBE0F901F90BA
:100CF00018958081F4CF1F920F920FB60F92112496
:100D00002F933F934F935F936F937F938F939F9313
:100D1000AF93BF93EF93FF93E091C601F091C701AA
:100D2000309749F0A685B7858585968D91FF14C0CB
:100D30009C918923A1F4FF91EF91BF91AF919F9175
:100D40008F917F916F915F914F913F912F910F9074
:100D50000FBE0F901F9018959C91892361F7A3896E
:100D6000B4899C918589809589238C9386899789FC
:100D70000197F1F7608D718DA685B785558538E0AF
:100D800020E0CB010197F1F7822F90E095958795B0
:100D9000282F4C91452309F02068315091F7868D1A
:100DA00081FD20958091C40190E001968F73992771
:100DB0003091C501381799F0A091C401B0E0AC574B
:100DC000BE4F2C938093C401828D938D0197F1F7D0
:100DD000A389B4898C919589892B8C93ACCF868D0E
:100DE0008160868FF1CFE0EFF1E01382128288EE0E
:100DF00093E0A0E0B0E084839583A683B7838CE181
:100E000091E09183808385EC90E09587848784ECE2
:100E100090E09787868780EC90E0918B808B81ECC7
:100E200090E0938B828B82EC90E0958B848B86ECA8
:100E300090E0978B868B118E128E138E148E87ED19
:100E400092E00E945D0581ED92E00E945D058BECD1
:100E500092E00E945D054BE06AE08CEA92E00E941D
:100E6000280143E062E08DE892E00C942801789438
:100E700084B5826084BD84B5816084BD85B582609F
:100E800085BD85B5816085BD80916E008160809350
:100E90006E001092810080918100826080938100B9
:100EA00080918100816080938100809180008160C9
:100EB000809380008091B10084608093B100809124
:100EC000B00081608093B00080917A00846080934C
:100ED0007A0080917A00826080937A0080917A0013
:100EE000816080937A0080917A00806880937A0094
:100EF0001092C100E0910002F091010282E0808333
:100F0000E091FC01F091FD011082E091FE01F09171
:100F1000FF018FEC808310920802E0910402F091AF
:100F2000050286E08083E0910202F0910302808155
:100F300080618083E0910202F091030280818860E9
:100F40008083E0910202F0910302808180688083B7
:100F5000E0910202F091030280818F7D80838CEA10
:100F600092E00E9491038DE892E00E94910361E07B
:100F700089E00E94F70061E088E00E94F70061E0EC
:100F800087E00E94F70061E084E00E94F7000E9481
:100F90008D016093CD017093CE018093CF0190932A
:100FA000D0010E948D016093D1017093D201809392
:100FB000D3019093D4010E948D016093D501709369
:100FC000D6018093D7019093D80187E491E00E94E5
:100FD000400400E010E0C1E00E948D016B017C0143
:100FE000C092E301D092E401E092E501F092E601C3
:100FF0000E948D014B015C018092DF019092E00123
:10100000A092E101B092E20180EF91E00E94F7012D
:101010001816190644F480EF91E00E94D5018A3039
:1010200009F5C093DE018CEA92E00E9468030E94F9
:101030008D01681979098A099B0964367105810552
:101040009105E0F48CEA92E00E941B031816190641
:1010500074F78CEA92E00E9431038A3049F4C0931D
:10106000DC01E5CF682F87ED92E00E94A905CCCF87
:10107000682F81ED92E00E94A905E4CF8DE892E00F
:101080000E9468030E948D016C197D098E099F09D9
:101090006436710581059105B0F48DE892E00E94F7
:1010A0001B031816190674F78DE892E00E943103AD
:1010B0008A3019F4C093DA01E5CF682F8BEC92E007
:1010C0000E94A905EACF8091DE01882391F161E0B9
:1010D00089E00E94AB008091D7029091D802C12C88
:1010E000D12C7601009721F00E94C9096B017C0187
:1010F00084E591E00E94EF03C701B6010E946304FA
:1011000020E030E040EF50E4C701B6010E94600DDE
:1011100018163CF40E944E0461E082E090E00E94C8
:10112000650C87ED92E00E9486051092DE01C09367
:10113000DD018091DC01882391F161E088E00E946B
:10114000AB008091D1029091D202C12CD12C7601BA
:10115000009721F00E94C9096B017C018FE591E0A5
:101160000E94EF03C701B6010E94630420E030E053
:1011700048E452E4C701B6010E94600D18163CF421
:101180000E944E0461E090E080E00E94650C81EDD9
:1011900092E00E9486051092DC01C093DB018091F1
:1011A000DA01882391F161E087E00E94AB00809131
:1011B000CB029091CC02C12CD12C7601009721F06A
:1011C0000E94C9096B017C018BE691E00E94EF034C
:1011D000C701B6010E94630420E030E040EF51E413
:1011E000C701B6010E94600D18163CF40E944E041F
:1011F00061E081E090E00E94650C8BEC92E00E943F
:1012000086051092DA01C093D9010E948D01C09029
:10121000D501D090D601E090D701F090D8016C199B
:101220007D098E099F096536710581059105A0F03C
:101230008091D901882381F060E087E00E94AB00B3
:101240001092D9010E948D016093D5017093D6014F
:101250008093D7019093D8010E948D01C090D10155
:10126000D090D201E090D301F090D4016C197D09A7
:101270008E099F096536710581059105A0F0809161
:10128000DB01882381F060E088E00E94AB000E94CF
:101290008D016093D1017093D2018093D30190931B
:1012A000D4011092DB010E948D01C090CD01D0903D
:1012B000CE01E090CF01F090D0016C197D098E092C
:1012C0009F096536710581059105A0F08091DD01CA
:1012D000882381F060E089E00E94AB000E948D01CC
:1012E0006093CD017093CE018093CF019093D00194
:1012F0001092DD018091CC018823E9F00E948D01DC
:10130000C090C801D090C901E090CA01F090CB0113
:101310006C197D098E099F09683E7340810591050E
:1013200050F060E084E00E94AB0089E791E00E9409
:1013300040041092CC010115110509F44DCE0E9414
:101340000302882309F448CE0E94000045CECF93C3
:10135000DF93CAE0D1E0D0938E02C0938D028DE876
:1013600092E00E945203D093AD02C093AC028CEA8B
:1013700092E00E9452038BEC92E00E942D0581EDD9
:1013800092E00E942D0587ED92E0DF91CF910C94C1
:101390002D05662777270C94CD09B0E0A0E0E3ED9A
:1013A000F9E00C94840C5C017B016115710519F066
:1013B000DB018D939C9385010F5F1F4FF501D08159
:1013C0008D2F90E00E941D0B6C01892BB9F5DD3249
:1013D000B9F50F5F1F4FD5011196DC91C1E058019F
:1013E000F1E0AF1AB10843E050E060E770E0C501FA
:1013F0000E94260B892B69F5680182E0C80ED11C7A
:1014000045E050E06BE670E0C6010E94260B892B98
:1014100021F4680197E0C90ED11CE114F10419F020
:10142000D701CD92DC9260E070E080E89FEFC111BF
:10143000FFC060E070E080E89FE7FAC05801BBCFD2
:10144000DB3229F485010E5F1F4FF501D181C0E029
:10145000C6CF43E050E068E670E0C5010E94260B6D
:10146000892BE9F0F80110E000E020E030E0A9016C
:101470005F01B0ED8B2E8D0E89E08815C8F19C2E92
:10148000689491F88C2F8870C2FF16C0811102C039
:101490000F5F1F4F3196D501DC91C92DE9CFE114C3
:1014A000F10429F00E5F1F4FF7011183008360E004
:1014B00070E080EC9FE7BCC0882311F00150110957
:1014C000A5E0B0E00E94730C9B01AC01220F331F1A
:1014D000441F551F280D311D411D511D283999E903
:1014E0003907490799E15907A8F2C6609C2ED2CF67
:1014F000AEEF8A1206C0C3FD3CC09C2E689493F8E0
:10150000C9CFDF7DD534A9F580818D3239F4C06132
:10151000DF011296818162E070E006C0DF018B324C
:10152000C1F3119661E070E080535D01A61AB70A1D
:101530008A30F8F4E0E8CE16ECE0DE065CF4B601A2
:10154000660F771F660F771FC60ED71ECC0CDD1CEB
:10155000C80ED11C5D01FFEFAF1ABF0A8C918053FA
:101560008A30A8F1C4FF03C0D194C194D1080C0DF6
:101570001D1DC1FF09C0E114F10431F081E0A81A7A
:10158000B108D701AD92BC92CA01B9010E94430BC8
:10159000C370C33009F490584B015C0120E030E087
:1015A000A9010E943E0B882309F440C0CFE9D0E096
:1015B00017FF05C0119501951109C7E8D0E06E012C
:1015C000B8E1CB1AD10880E2E82EF12C0FC0D5018A
:1015D000B1CFFE0125913591459154910E191F0906
:1015E000C501B4010E94A40B4B015C01D501C401EB
:1015F0000E151F0574F72497F594E794CC16DD06B5
:10160000A9F78A2F880F8B2F881F8F3F49F020E082
:1016100030E0A901C501B4010E943E0B811106C052
:1016200082E290E09093DE028093DD02C501B40176
:10163000CDB7DEB7ECE00C94A00C91110C94110C1A
:10164000803219F089508550C8F70895FB01DC01FC
:101650004150504088F08D9181341CF08B350CF452
:10166000805E659161341CF06B350CF4605E861B06
:10167000611171F3990B0895881BFCCF0E94800BB8
:1016800008F481E00895E89409C097FB3EF4909532
:101690008095709561957F4F8F4F9F4F9923A9F04B
:1016A000F92F96E9BB279395F695879577956795DA
:1016B000B795F111F8CFFAF4BB0F11F460FF1BC01E
:1016C0006F5F7F4F8F4F9F4F16C0882311F096E9B1
:1016D00011C0772321F09EE8872F762F05C066235F
:1016E00071F096E8862F70E060E02AF09A95660F18
:1016F000771F881FDAF7880F9695879597F90895D1
:10170000990F0008550FAA0BE0E8FEEF1616170612
:10171000E807F907C0F012161306E407F50798F07A
:10172000621B730B840B950B39F40A2661F0232B93
:10173000242B252B21F408950A2609F4A140A6950F
:101740008FEF811D811D08950E94B70B0C942B0C07
:101750000E941D0C38F00E94240C20F0952311F0FB
:101760000C94140C0C941A0C11240C945F0C0E9411
:101770003C0C70F3959FC1F3950F50E0551F629F8D
:10178000F001729FBB27F00DB11D639FAA27F00DDA
:10179000B11DAA1F649F6627B00DA11D661F829F01
:1017A0002227B00DA11D621F739FB00DA11D621FE6
:1017B000839FA00D611D221F749F3327A00D611D03
:1017C000231F849F600D211D822F762F6A2F1124E5
:1017D0009F5750409AF0F1F088234AF0EE0FFF1F18
:1017E000BB1F661F771F881F91505040A9F79E3F6F
:1017F000510580F00C94140C0C945F0C5F3FE4F3E3
:10180000983ED4F3869577956795B795F795E795C4
:101810009F5FC1F7FE2B880F911D9695879597F9CD
:10182000089599278827089597F99F6780E870E0C1
:1018300060E008959FEF80EC089500240A94161646
:10184000170618060906089500240A9412161306AE
:10185000140605060895092E0394000C11F488233C
:1018600052F0BB0F40F4BF2B11F460FF04C06F5F58
:101870007F4F8F4F9F4F089557FD9058440F551F2E
:1018800059F05F3F71F04795880F97FB991F61F002
:101890009F3F79F087950895121613061406551F79
:1018A000F2CF4695F1DF08C0161617061806991FE5
:1018B000F1CF86957105610508940895E894BB27DA
:1018C00066277727CB0197F90895262FF999FECF40
:1018D0001FBA92BD81BD20BD0FB6F894FA9AF99A4D
:1018E0000FBE019608950E94B50CA59F900DB49F60
:1018F000900DA49F800D911D112408952F923F9269
:101900004F925F926F927F928F929F92AF92BF920F
:10191000CF92DF92EF92FF920F931F93CF93DF93BB
:10192000CDB7DEB7CA1BDB0B0FB6F894DEBF0FBE18
:10193000CDBF09942A88398848885F846E847D8465
:101940008C849B84AA84B984C884DF80EE80FD8067
:101950000C811B81AA81B981CE0FD11D0FB6F894DD
:10196000DEBF0FBECDBFED010895A29FB001B39FB2
:10197000C001A39F700D811D1124911DB29F700D98
:10198000811D1124911D08955058BB27AA270E943C
:10199000DC0C0C942B0C0E941D0C38F00E94240CC3
:1019A00020F039F49F3F19F426F40C941A0C0EF42D
:1019B000E095E7FB0C94140CE92F0E943C0C58F3C3
:1019C000BA17620773078407950720F079F4A6F524
:1019D0000C945E0C0EF4E0950B2EBA2FA02D0B018B
:1019E000B90190010C01CA01A0011124FF27591B64
:1019F00099F0593F50F4503E68F11A16F040A22F6A
:101A0000232F342F4427585FF3CF469537952795DA
:101A1000A795F0405395C9F77EF41F16BA0B620BD9
:101A2000730B840BBAF09150A1F0FF0FBB1F661F20
:101A3000771F881FC2F70EC0BA0F621F731F841F63
:101A400048F4879577956795B795F7959E3F08F089
:101A5000B0CF9395880F08F09927EE0F979587954B
:101A600008950E94440C88F09F5798F0B92F992749
:101A7000B751B0F0E1F0660F771F881F991F1AF079
:101A8000BA95C9F714C0B13091F00E945E0CB1E074
:101A900008950C945E0C672F782F8827B85F39F073
:101AA000B93FCCF3869577956795B395D9F73EF412
:101AB00090958095709561957F4F8F4F9F4F0895BA
:101AC0000E94800B08F48FEF08950E94800B880B12
:101AD000990B0895A1E21A2EAA1BBB1BFD010DC094
:101AE000AA1FBB1FEE1FFF1FA217B307E407F507CE
:101AF00020F0A21BB30BE40BF50B661F771F881FAA
:101B0000991F1A9469F760957095809590959B013F
:101B1000AC01BD01CF010895EE0FFF1F0590F491B8
:101B2000E02D09940F931F93CF93DF93823091059B
:101B300010F482E090E0E091E102F091E20230E006
:101B400020E0B0E0A0E0309799F42115310509F4C8
:101B50004AC0281B390B24303105D8F58A819B8176
:101B60006115710589F1FB0193838283FE0111C028
:101B7000408151810281138148175907E0F04817CD
:101B8000590799F4109761F012960C9312971396D7
:101B90001C933296CF01DF91CF911F910F91089541
:101BA0000093E1021093E202F4CF2115310551F0C8
:101BB0004217530738F0A901DB019A01BD01DF018B
:101BC000F801C1CFEF01F9CF9093E2028093E102D7
:101BD000CDCFFE01E20FF31F819391932250310983
:101BE00039832883D7CF2091DF023091E002232B65
:101BF00041F420910201309103013093E0022093DF
:101C0000DF0220910001309101012115310541F4DD
:101C10002DB73EB74091040150910501241B350BAF
:101C2000E091DF02F091E002E217F307A0F42E1B2F
:101C30003F0B2817390778F0AC014E5F5F4F241730
:101C4000350748F04E0F5F1F5093E0024093DF02CC
:101C5000819391939FCFF0E0E0E09CCFCF93DF930F
:101C60000097E9F0FC01329713821282A091E10201
:101C7000B091E202ED0130E020E01097A1F4208164
:101C80003181820F931F2091DF023091E0022817EB
:101C9000390709F061C0F093E002E093DF02DF91C1
:101CA000CF910895EA01CE17DF07E8F54A815B81FD
:101CB0009E0141155105B1F7E901FB83EA83499182
:101CC0005991C40FD51FEC17FD0761F480819181F4
:101CD0000296840F951FE9019983888382819381FD
:101CE0009B838A83F0E0E0E012968D919C9113979C
:101CF0000097B9F52D913C911197CD010296820F75
:101D0000931F2091DF023091E0022817390739F63E
:101D1000309751F51092E2021092E102B093E00286
:101D2000A093DF02BCCFD383C28340815181840F53
:101D3000951FC817D90761F44E5F5F4F888199815D
:101D4000480F591F518340838A819B8193838283EB
:101D50002115310509F0B0CFF093E202E093E102E2
:101D60009ECFFD01DC01C0CF13821282D7CFB0E03D
:101D7000A0E0EDEBFEE00C94800C8C01009751F498
:101D8000CB010E94920D8C01C801CDB7DEB7E0E116
:101D90000C949C0CFC01E60FF71F9C0122503109AA
:101DA000E217F30708F49DC0D901CD91DC9111979A
:101DB000C617D70798F0C530D10530F3CE01049788
:101DC0008617970708F3C61BD70B2297C193D193A9
:101DD0006D937C93CF010E942E0ED6CF5B01AC1A7F
:101DE000BD0A4C018C0E9D1EA091E102B091E20251
:101DF000512C412CF12CE12C109731F58091DF0210
:101E00009091E0028815990509F05CC046165706C6
:101E100008F058C08091000190910101009741F4B1
:101E20008DB79EB74091040150910501841B950B1D
:101E3000E817F90708F055C0F093E002E093DF02DD
:101E4000F90171836083A0CF8D919C9111971296B7
:101E50006C90129713967C901397A815B90559F5B5
:101E60006C0142E0C40ED11CCA14DB0420F1AC01A9
:101E70004A195B09DA011296159780F06282738223
:101E800051834083D9016D937C93E114F10471F087
:101E9000D7011396FC93EE93129776CF22968C0F70
:101EA0009D1FF90191838083F301EFCFF093E2024C
:101EB000E093E10269CF4816590608F42C017D0130
:101EC000D3019ACFCB010E94920D7C01009749F07B
:101ED000AE01B8010E94740FC8010E942E0E870146
:101EE00053CF10E000E050CFFB01DC0102C00190B5
:101EF0000D9241505040D8F70895FB01DC0101904C
:101F00000D920020E1F7089510E0C0E8D0E004C091
:101F1000FE010E948C0D2196C138D107C9F7F894B3
:021F2000FFCFF1
:101F22000000E302800000000000BF029901EC0300
:101F3200BE021B033103A602000000003902990110
:101F4200C6018602F701D501E9010D0A0041637459
:101F52006976652062757A7A6572006E616E0069D3
:101F62006E66006F7666004D61737465722052650D
:101F7200616479007048204C6576656C3A200054A3
:101F820075726269646974793A200054656D70658E
:101F92007261747572653A20004F46462062757A06
:041FA2007A657200EA
:00000001FF
